:100000000C943E000C945B000C945B000C945B0021
:100010000C945B000C945B000C945B000C945B00F4
:100020000C945B000C945B000C945B000C945B00E4
:100030000C945B000C945B000C945B000C945B00D4
:100040000C945B000C945B000C945B000C945B00C4
:100050000C945B000C945B000C945B000C945B00B4
:100060000C945B000C945B000C945B000C945B00A4
:100070000C945B000C945B000C945B0011241FBE7D
:10008000CFEFD8E0DEBFCDBF11E0A0E0B1E0EAE401
:10009000FFE002C005900D92A239B107D9F721E027
:1000A000A2E9B1E001C01D92A539B207E1F70E94B3
:1000B00070050C94A3070C9400000F931F93CF932B
:1000C000DF938B01D42FC52F0E940002C8010E942C
:1000D0003C058D2F9C2FDF91CF911F910F910C9498
:1000E0000C05282FCB01213019F0223039F008956A
:1000F00025E041E070E060E00C943C0225E041E046
:1001000061E070E0F9CFEF92FF920F931F93CF93CE
:10011000DF93EC01E62FF42F4E2D54E6F59FC0013E
:1001200011246FEF70E00E94C305E23609F47DC030
:1001300010F5E53409F45BC078F4E93009F46BC0DC
:10014000E43409F44AC0E230E1F1DF91CF911F912C
:100150000F91FF90EF900895E83409F451C0E056F4
:10016000E23098F7C801DF91CF911F910F91FF9076
:10017000EF900C943C05E03C09F46DC090F4E4363B
:1001800009F45DC0E53609F464C0E336F1F6462FA4
:10019000C801DF91CF911F910F91FF90EF900C94C8
:1001A0003505E13C09F460C0EF3F79F65F2DB801F9
:1001B000C901DF91CF911F910F91FF90EF900C94A7
:1001C0005D0029E1F29FC0011124DF91CF911F91C1
:1001D0000F91FF90EF900C94D301B9018F2FDF9115
:1001E000CF911F910F91FF90EF900C947100C90176
:1001F000DF91CF911F910F91FF90EF900C9400022F
:100200006F2F8E2D9F2DDF91CF911F910F91FF901A
:10021000EF900C94C2048E2D9F2DDF91CF911F91F2
:100220000F91FF90EF900C940C05462FC801DF91C1
:10023000CF911F910F91FF90EF900C942E0561E0EC
:10024000C801DF91CF911F910F91FF90EF900C9417
:100250005F0560E0F5CF8881998190939301809349
:100260009201F093940171CF80919401882309F455
:100270006CCF209192013091930139832883815072
:100280008093940162CF4F925F926F927F928F9290
:100290009F92AF92BF92CF92DF92EF92FF920F9315
:1002A0001F93CF93DF9300D000D00F92CDB7DEB76E
:1002B000D82EC92E962E872E742E652E522E432EA2
:1002C0001D821C821B82AE014D5F5F4F70E060E0BB
:1002D0000E9407038FE19EE40197F1F700C0000040
:1002E000AE014D5F5F4F61E070E08D2D9C2D0E944F
:1002F000070382E090E09A8389838FE19EE401976F
:10030000F1F700C0000010E0A980BA80AE014B5F99
:100310005F4FB5018D2D9C2D0E9407038FE19EE458
:100320000197F1F700C00000B5016F5F7F4FAE018C
:100330004C5F5F4F8D2D9C2D0E94070392E0A90E0C
:10034000B11CBA82A9828FE19EE40197F1F700C047
:1003500000006D81613011F0112361F0E52CF42C67
:10036000072D162D292D382D4C81CE0101960E9486
:10037000830011E08D818F3F39F60F900F900F9021
:100380000F900F90DF91CF911F910F91FF90EF9001
:10039000DF90CF90BF90AF909F908F907F906F90A5
:1003A0005F904F90089562E370E00E94AF0580E097
:1003B000861301C008952FE738E391E021503040C3
:1003C0009040E1F700C000008F5FF2CF0F93FC0177
:1003D000DA017183608353834283248305833C91D4
:1003E00041E050E0CA0101C0880F2A95EAF701C038
:1003F000440F0A95EAF7842B832B8C930F91089571
:10040000FC01A081B1814C91848121E030E0B901EF
:1004100002C0660F771F8A95E2F7CB01958101C074
:10042000220F9A95EAF7822B809584238C93089566
:10043000EF92FF920F931F93CF93DF93D82FC92F83
:100440008B01E42EF22E25E041E00E943C028E2D2D
:1004500090E00E94D30125E041E0B8018D2F9C2F50
:100460000E943C028F2D90E0DF91CF911F910F9160
:10047000FF90EF900C94D301EF92FF920F931F9394
:10048000CF93DF93EC018B01F42EE22E61307105E6
:10049000D1F06230710519F1672B71F40E940002EE
:1004A000E881F98180819C8121E030E001C0220F48
:1004B0009A95EAF7822B8083DF91CF911F910F915C
:1004C000FF90EF9008950E940002E881F9818081F9
:1004D0009D8101C0000F9A95EAF7802BECCF0E9416
:1004E00000022E2D4F2D62E070E0CE01DF91CF9102
:1004F0001F910F91FF90EF900C9418027F928F92B2
:100500009F92AF92BF92CF92DF92EF92FF920F93A2
:100510001F93CF93DF93D82EC92E862E772E5A01A4
:10052000E901F12C021B130B912C9A141B0470F09F
:10053000DF91CF911F910F91FF90EF90DF90CF90BF
:10054000BF90AF909F908F907F90089525E041E0FD
:10055000682D772D8D2D9C2D0E943C02CE01019798
:10056000F1F78D2D9C2D0E940002C8010197F1F733
:10057000CE19DF0993940E0D1F1DD7CFCF92DF92B6
:10058000EF92FF920F931F93CF93DF93EC01D62E40
:10059000C72EF42E122F032FE12CEF1009C0DF918C
:1005A000CF911F910F91FF90EF90DF90CF90089522
:1005B00025E041E06D2D7C2DCE010E943C02812F73
:1005C000902F0E94D301CE010E940002812F902F14
:1005D0000E94D301E394E1CF089580EA8093000163
:1005E0001092B90080E28093B8000895FC0180E881
:1005F0008083CF010C94ED02982F9370891305C06E
:10060000880F806A8093000108958FEF0895FA01A2
:1006100094EA24E89093BC008091BC0087FFFCCF53
:10062000809100018093BB002093BC008091BC00AE
:1006300087FFFCCF8091B900883161F784EA80930D
:10064000BC008091BC0087FFFCCF809100018093AB
:10065000BB0084E88093BC008091BC0087FFFCCF86
:100660007093BB0084E88093BC008091BC0087FF3E
:10067000FCCF6093BB0084E88093BC008091BC00F9
:1006800087FFFCCF8091BC0087FFFCCF84EA80937A
:10069000BC008091BC0087FFFCCF809100018F5F80
:1006A0008093BB0084E88093BC008091BC0087FFEE
:1006B000FCCF84E88093BC008091BC0087FFFCCF16
:1006C0008091BB00808384E98093BC0080E0089522
:1006D00094EA34E89093BC008091BC0087FFFCCF83
:1006E000809100018093BB003093BC008091BC00DE
:1006F00087FFFCCF8091B900883161F784EA80934D
:10070000BC008091BC0087FFFCCF809100018093EA
:10071000BB0084E88093BC008091BC0087FFFCCFC5
:100720007093BB0084E88093BC008091BC0087FF7D
:10073000FCCF6093BB0084E88093BC008091BC0038
:1007400087FFFCCF84EA8093BC008091BC0087FFC8
:10075000FCCF809100018F5F8093BB0084E8809381
:10076000BC008091BC0087FFFCCF84EC211105C048
:1007700084E98093BC0080E00895213009F484E886
:100780008093BC009091BC0097FFFCCFFA01909140
:10079000BB0091932150AF01E9CF94EA24E89093F4
:1007A000BC008091BC0087FFFCCF8091000180934A
:1007B000BB002093BC008091BC0087FFFCCF8091E0
:1007C000B900883161F784EA8093BC008091BC0055
:1007D00087FFFCCF809100018093BB0084E8809369
:1007E000BC008091BC0087FFFCCF7093BB0084E805
:1007F0008093BC008091BC0087FFFCCF6093BB005E
:1008000084E88093BC008091BC0087FFFCCF4093BC
:10081000BB0084E88093BC008091BC0087FFFCCFC4
:1008200084E98093BC0080E00895FB01260F372FF8
:10083000311DDC018C918150990B862B9F2B281741
:10084000390718F09C012F5F3F4F822F8E1B24EA3F
:1008500034E82093BC009091BC0097FFFCCF9091AE
:1008600000019093BB003093BC009091BC0097FFB7
:10087000FCCF9091B900983161F794EA9093BC0055
:100880009091BC0097FFFCCF909100019093BB002A
:1008900094E89093BC009091BC0097FFFCCFF0933C
:1008A000BB0094E89093BC009091BC0097FFFCCFF4
:1008B000E093BB0094E89093BC009091BC0097FF3C
:1008C000FCCF982F24E8911104C094E99093BC00C8
:1008D0000895FA0131913093BB002093BC00309110
:1008E000BC0037FFFCCF9150AF01EDCFDF92EF920C
:1008F000FF920F931F93CF93DF93D82ED92F7B01B5
:100900008A01C22F2C2FA801B7018D2D9D2F0E9487
:100910001504282F30E0E20EF31EC81B020F131F30
:10092000C111F0CF80E0DF91CF911F910F91FF9027
:10093000EF90DF900895DC0180E9E1E0F1E00190C3
:100940000D928A95E1F78AB1806C8AB90895CF93A8
:10095000DF9300D000D0CDB7DEB76D5224E0629FA8
:10096000B0011124860F971FFC0120813181428143
:100970005381CA01B9010F900F900F900F90DF9132
:10098000CF910895CF93DF9300D000D0CDB7DEB7DD
:100990006D5224E0629FF0011124E80FF91F20E05E
:1009A00030E040E055E460817181828193810E9452
:1009B00036079B01AC0160E074E284EF9AE40E9488
:1009C000440620E030E040E85FE369837A838B836C
:1009D0009C8369817A818B819C810E94D705698380
:1009E0007A838B839C8369817A818B819C810E942D
:1009F000B6066093B300E0EBF0E080818264808310
:100A0000E1EBF0E08081876080830F900F900F9082
:100A10000F90DF91CF9108951092B100089584B1A5
:100A2000886184B984B1846284B90895EFEF6E9FC0
:100A3000C001112424E630E0B9010E94C30567BD5E
:100A40004E9FC0011124B9010E94C30568BD84B541
:100A5000816A84BD85B5826085BD08959C0195B18C
:100A60009B7D95B9C9010C9416059C0195B19462C2
:100A700095B9C9010C9416059C0195B19B7D95B95A
:100A800040E060E0C9010C941605CF93C62F2D9865
:100A90002A9A42E362E30E9416058C2F90E0CF91E0
:100AA0000C94D301CF93C62F2A982D9A42E362E388
:100AB0000E9416058C2F90E0CF910C94D3016623F1
:100AC00061F0613011F42A982D9A46E466E40E94A0
:100AD00016058CEB92E00C94D3012D982A9AF5CF51
:100AE000CDB7DEB7C859D1090FB6F894DEBF0FBE37
:100AF000CDBFCE0188569F4F0E94F60201E020E054
:100B000041E250E062E270E0CE018F569F4F0E94BA
:100B1000E601CE0189569F4F0E940F05CE01019636
:100B20000E949B049E012F5F3F4FAE0149565F4FCD
:100B3000BE016F567F4FCE0188569F4F0E944301E2
:100B4000CE0188569F4F0E94EC0290E080E0C8568C
:100B5000DF4F0FB6F894DEBF0FBECDBF0895AA1BBE
:100B6000BB1B51E107C0AA1FBB1FA617B70710F098
:100B7000A61BB70B881F991F5A95A9F780959095CA
:100B8000BC01CD01089597FB072E16F4009407D001
:100B900077FD09D00E94AF0507FC05D03EF4909583
:100BA00081959F4F0895709561957F4F0895505896
:100BB000BB27AA270E94EF050C94FC060E94EE06B4
:100BC00038F00E94F50620F039F49F3F19F426F41E
:100BD0000C94EB060EF4E095E7FB0C94E506E92F88
:100BE0000E940D0758F3BA17620773078407950729
:100BF00020F079F4A6F50C942F070EF4E0950B2E57
:100C0000BA2FA02D0B01B90190010C01CA01A0015E
:100C10001124FF27591B99F0593F50F4503E68F1B9
:100C20001A16F040A22F232F342F4427585FF3CFFA
:100C3000469537952795A795F0405395C9F77EF4CB
:100C40001F16BA0B620B730B840BBAF09150A1F014
:100C5000FF0FBB1F661F771F881FC2F70EC0BA0F9A
:100C6000621F731F841F48F4879577956795B79522
:100C7000F7959E3F08F0B0CF9395880F08F099271D
:100C8000EE0F9795879508950E9458060C94FC06E0
:100C90000E94F50658F00E94EE0640F029F45F3FEE
:100CA00029F00C94E50651110C9430070C94EB06D6
:100CB0000E940D0768F39923B1F3552391F3951B17
:100CC000550BBB27AA2762177307840738F09F5F6D
:100CD0005F4F220F331F441FAA1FA9F335D00E2EDA
:100CE0003AF0E0E832D091505040E695001CCAF747
:100CF0002BD0FE2F29D0660F771F881FBB1F26170A
:100D000037074807AB07B0E809F0BB0B802DBF01E0
:100D1000FF2793585F4F3AF09E3F510578F00C94AF
:100D2000E5060C9430075F3FE4F3983ED4F38695D4
:100D300077956795B795F7959F5FC9F7880F911DD0
:100D40009695879597F90895E1E0660F771F881FBC
:100D5000BB1F621773078407BA0720F0621B730B6F
:100D6000840BBA0BEE1F88F7E09508950E941507D3
:100D700088F09F5798F0B92F9927B751B0F0E1F05C
:100D8000660F771F881F991F1AF0BA95C9F714C00C
:100D9000B13091F00E942F07B1E008950C942F0715
:100DA000672F782F8827B85F39F0B93FCCF3869545
:100DB00077956795B395D9F73EF4909580957095A2
:100DC00061957F4F8F4F9F4F089597F99F6780E8F8
:100DD00070E060E008959FEF80EC089500240A948D
:100DE0001616170618060906089500240A94121606
:100DF0001306140605060895092E0394000C11F439
:100E0000882352F0BB0F40F4BF2B11F460FF04C0E5
:100E10006F5F7F4F8F4F9F4F089557FD9058440F3E
:100E2000551F59F05F3F71F04795880F97FB991F49
:100E300061F09F3F79F08795089512161306140606
:100E4000551FF2CF4695F1DF08C016161706180693
:100E5000991FF1CF86957105610508940895E8946E
:100E6000BB2766277727CB0197F908950E9449078A
:100E70000C94FC060E94EE0638F00E94F50620F065
:100E8000952311F00C94E5060C94EB0611240C94B8
:100E900030070E940D0770F3959FC1F3950F50E046
:100EA000551F629FF001729FBB27F00DB11D639F1C
:100EB000AA27F00DB11DAA1F649F6627B00DA11DC2
:100EC000661F829F2227B00DA11D621F739FB00D68
:100ED000A11D621F839FA00D611D221F749F3327D8
:100EE000A00D611D231F849F600D211D822F762F71
:100EF0006A2F11249F5750409AF0F1F088234AF04E
:100F0000EE0FFF1FBB1F661F771F881F91505040B9
:100F1000A9F79E3F510580F00C94E5060C9430072C
:100F20005F3FE4F3983ED4F3869577956795B79540
:100F3000F795E7959F5FC1F7FE2B880F911D96955A
:0A0F4000879597F90895F894FFCF04
:100F4A00A07B14E942A4F0F6425CCF02430A970A56
:100F5A00437BD412435C8F1B435CCF2443299C2ED2
:100F6A0043000039430000444366A64F4300005C37
:100F7A00437B146943A4F07643A4D082430A978A38
:100F8A00437BD49243A4909B43A4D0A443719DAEC7
:100F9A0043B8FEB8430000C44366A6CF430000DC52
:100FAA00437B14E943A4F0F64300D00244AE970A07
:100FBA00441FD5124400901B44A4D02444719D2E92
:100FCA00445CFF38445CFF43440AA74F4400005C7A
:020FDA004400D1
:00000001FF
