:100000000C943E000C9453000C9453000C94530039
:100010000C9453000C9453000C9453000C94530014
:100020000C9453000C9453000C9453000C94530004
:100030000C9453000C9453000C9453000C945300F4
:100040000C9453000C9453000C9453000C945300E4
:100050000C9453000C9453000C9453000C945300D4
:100060000C9453000C9453000C9453000C945300C4
:100070000C9453000C9453000C94530011241FBE95
:10008000CFEFD8E0DEBFCDBF11E0A0E0B1E0EAEAFB
:10009000F5E002C005900D92A230B107D9F70E9499
:1000A000CE020C94D3020C940000EF92FF920F93B7
:1000B0001F93CF93DF937C018B01EA01C9010E945A
:1000C000C702482FF701808368817981C8010E94A7
:1000D000B801888199810196998388838FE097E29E
:1000E0000197F1F700C00000DF91CF911F910F91B0
:1000F000FF90EF9008958F929F92AF92BF92CF9210
:10010000DF92EF92FF920F931F93CF93DF9300D074
:1001100000D00F92CDB7DEB76E0185E0C80ED11CBE
:10012000C6010E94E1007E0194E0E90EF11CC701C6
:100130000E9486021A8219821B824E0183E0880E79
:10014000911C9701CE0101965C01AC01B601C4017E
:100150000E9455000B8110E0102F00279701A50188
:10016000B601C4010E9455008B81082B89819A81B8
:1001700080179107A8F0C6010E94D7000F900F903A
:100180000F900F900F90DF91CF911F910F91FF90E3
:10019000EF90DF90CF90BF90AF909F908F90089599
:1001A0009701A501B601C4010E945500DFCF089553
:1001B00080EA809300011092B90080E28093B80039
:1001C0000895FC0180E88083CF010C94D800982F1B
:1001D0009370891305C0880F806A80930001089589
:1001E0008FEF0895FA0194EA24E89093BC0080917F
:1001F000BC0087FFFCCF809100018093BB0020935F
:10020000BC008091BC0087FFFCCF8091B900883191
:1002100061F784EA8093BC008091BC0087FFFCCF2B
:10022000809100018093BB0084E88093BC008091A2
:10023000BC0087FFFCCF7093BB0084E88093BC00B8
:100240008091BC0087FFFCCF6093BB0084E8809363
:10025000BC008091BC0087FFFCCF8091BC0087FF71
:10026000FCCF84EA8093BC008091BC0087FFFCCF68
:10027000809100018F5F8093BB0084E88093BC0075
:100280008091BC0087FFFCCF84E88093BC00809104
:10029000BC0087FFFCCF8091BB00808384E9809302
:1002A000BC0080E0089594EA34E89093BC0080910B
:1002B000BC0087FFFCCF809100018093BB0030938E
:1002C000BC008091BC0087FFFCCF8091B9008831D1
:1002D00061F784EA8093BC008091BC0087FFFCCF6B
:1002E000809100018093BB0084E88093BC008091E2
:1002F000BC0087FFFCCF7093BB0084E88093BC00F8
:100300008091BC0087FFFCCF6093BB0084E88093A2
:10031000BC008091BC0087FFFCCF84EA8093BC00C6
:100320008091BC0087FFFCCF809100018F5F80939C
:10033000BB0084E88093BC008091BC0087FFFCCFA9
:1003400084EC211105C084E98093BC0080E008950D
:10035000213009F484E88093BC009091BC0097FFA1
:10036000FCCFFA019091BB0091932150AF01E9CFEE
:1003700094EA24E89093BC008091BC0087FFFCCFF6
:10038000809100018093BB002093BC008091BC0051
:1003900087FFFCCF8091B900883161F784EA8093B0
:1003A000BC008091BC0087FFFCCF8091000180934E
:1003B000BB0084E88093BC008091BC0087FFFCCF29
:1003C0007093BB0084E88093BC008091BC0087FFE1
:1003D000FCCF6093BB0084E88093BC008091BC009C
:1003E00087FFFCCF4093BB0084E88093BC008091E2
:1003F000BC0087FFFCCF84E98093BC0080E00895B7
:10040000FB01260F372F311DDC018C918150990B98
:10041000862B9F2B2817390718F09C012F5F3F4F21
:10042000822F8E1B24EA34E82093BC009091BC00FC
:1004300097FFFCCF909100019093BB003093BC00DC
:100440009091BC0097FFFCCF9091B900983161F773
:1004500094EA9093BC009091BC0097FFFCCF9091E0
:1004600000019093BB0094E89093BC009091BC0075
:1004700097FFFCCFF093BB0094E89093BC00909161
:10048000BC0097FFFCCFE093BB0094E89093BC00C6
:100490009091BC0097FFFCCF982F24E8911104C0E5
:1004A00094E99093BC000895FA0131913093BB0018
:1004B0002093BC003091BC0037FFFCCF9150AF01BE
:1004C000EDCFDF92EF92FF920F931F93CF93DF93C5
:1004D000D82ED92F7B018A01C22F2C2FA801B7015A
:1004E0008D2D9D2F0E940002282F30E0E20EF31E7A
:1004F000C81B020F131FC111F0CF80E0DF91CF9115
:100500001F910F91FF90EF90DF9008951092C5001A
:100510008FEC8093C4001092C000E1ECF0E0808189
:1005200088618083E2ECF0E080818B7F8083808132
:100530008660808308958091C00085FFFCCF609322
:10054000C6000895FF920F931F93CF93DF93082F58
:10055000F92EEB0110E0212F30E0FE010190002088
:10056000E9F73197EC1BFD0B2E173F0730F0DF91B9
:10057000CF911F910F91FF9008952C0F3D1FF9010E
:100580006081802F9F2D0E949B021F5FE4CF80918E
:10059000C00087FFFCCF8091C60008950E947B00B9
:0A05A00090E080E00895F894FFCF8A
:0205AA00A000AF
:00000001FF
